:100000000C94B6020C946E210C94D3020C94D3027F
:100010000C94D3020C94D3020C94D3020C94D3020C
:100020000C94D3020C94D3020C947D280C94512987
:100030000C9497230C94D3020C94D3020C94D30207
:100040000C94D3020C94D3020C94D3020C94D302DC
:100050000C94D3020C943A240C94D3020C94D30243
:100060000C94D3020C94D3020C94D3020C94D302BC
:100070000C94D3020C94D3020C94D3020C94D302AC
:100080000C94D3020C94D3020C94D3020C94D3029C
:100090000C94D3020C94D3020C94D3020C94D3028C
:1000A0000C94D3020C94D3020C94D30229001400B4
:1000B0001A0008001500170000002B0004001600AD
:1000C000070009000A000000E1001D001B000600F7
:1000D000190005000000E000E308E20022522C00B5
:1000E000000000001C0018000C00120013004C005F
:1000F0002A000B000D000E000F0033000000280046
:1001000011000000100036003700E50021522C00DD
:1001100000000000E400E6002352225235003A00BD
:100120003B003C003D003E0000001E001F00200080
:100130002100220023000000000000000000000059
:10014000000034000000000000000000000000007B
:10015000000000003F004000410042004300440016
:10016000450024002500260027002D0000002E0059
:10017000380000002F0030003100000000000000B7
:100180000000000000000000000000003502AA008E
:10019000A900A8000000000000001E021F022002AB
:1001A00021022202230200000000000000000000E3
:1001B0000000340200000000000000000000000009
:1001C0000000000000004B0052004E0046004700B7
:1001D000480024022502260227022D0200002E02DA
:1001E000380200002F02300231020000000000003F
:1001F0000000000000000000000000000000AA0055
:10020000A900A8000000000000000000000000009D
:1002100000000000000000000000000000000000DE
:1002200000000000000000000000000000000000CE
:100230000000000000004B0052004E004600470046
:1002400048004A00500051004F00490000002E02B3
:100250004D00000060526152625263520000000083
:100260000000000000000000000000001E0F05005C
:10027000047F3F1F643214643214783C1E1E140A3B
:10028000052223252628292A2C2D2F3032333536D6
:10029000383A3B3D3E4042434547494A4C4E505117
:1002A000535557595A5C5E6062646668696B6D6F3E
:1002B00071737577797B7D7F81838587898A8C8E41
:1002C00090929496989A9C9E9FA1A3A5A7A8AAAC49
:1002D000AEAFB1B3B4B6B8B9BBBCBEBFC1C2C3C583
:1002E000C6C7C9CACBCCCDCED0D1D2D2D3D4D5D625
:1002F000D7D7D8D9D9DADADBDBDBDCDCDCDCDCDD58
:10030000DDDDDDDCDCDCDCDCDBDBDBDADAD9D9D83B
:10031000D7D7D6D5D4D3D2D2D1D0CECDCCCBCAC9D3
:10032000C7C6C5C3C2C1BFBEBCBBB9B8B6B4B3B102
:10033000AFAEACAAA8A7A5A3A19F9E9C9A9896949D
:1003400092908E8C8A89878583817F7D7B79777572
:1003500073716F6D6B6968666462605E5C5A595751
:10036000555351504E4C4A4947454342403E3D3B10
:100370003A3836353332302F2D2C2A29282625239A
:1003800022FFAA7F55400001010101010101010185
:100390000202020202020202020303030303030336
:1003A0000304040404040404050505050506060603
:1003B0000606070707070708080808090909090AC0
:1003C0000A0A0B0B0B0C0C0C0D0D0D0E0E0E0F0F65
:1003D0000F101011111112121313141415151616F3
:1003E0001717181819191A1A1B1B1C1D1D1E1E1F62
:1003F0002020212222232424252626272829292AB1
:100400002B2C2D2D2E2F30313232333435363738D8
:10041000393A3B3C3D3E3F404142434445464748D4
:10042000494A4C4D4E4F50515354555658595A5BAA
:100430005D5E5F616264656668696B6C6D6F70724A
:10044000737577787A7B7D7E8082838587888A8CB6
:100450008E8F91939596989A9C9EA0A2A3A5A7A9EA
:10046000ABADAFB1B3B5B7BABCBEC0C2C4C6C9CBE1
:10047000CDCFD1D4D6D8DBDDDFE2E4E7E9EBEEF097
:10048000F3F5F8FAFDFF100346006F0075007200E7
:1004900069006500720000000E034B0065006500F6
:1004A000620069006F0000000403090409023B00B8
:1004B000020100A0FA090400000103010100092162
:1004C0001101000122400007058103080001090411
:1004D0000100010300000009211101000122320086
:1004E000070582032000011201000200000008102D
:1004F000CB471200010102000105010980A101851D
:100500000319012AB700150126B70095017510815E
:1005100000C0050C0901A101850419012AA00215DA
:100520000126A002950175108100C005010906A1F0
:1005300001050719E029E7150025019508750181D6
:10054000029501750881010507190029FF1500268C
:10055000FF00950675088100050819012905950514
:1005600075019102950175039101C00011241FBE10
:10057000CFEFDAE0DEBFCDBF11E0A0E0B1E0ECEB01
:10058000FAE502C005900D92AE3EB107D9F723E01F
:10059000AEEEB1E001C01D92A837B207E1F70E94AC
:1005A00057150C94082D0C9400008430B8F4683072
:1005B000A8F4473098F450E097E0699F400D511D32
:1005C0001124FA0198E3899FE00DF11D1124EE0F2B
:1005D000FF1FE455FF4F85919491089581E090E0CD
:1005E00008950E94D502089581E008950E94F402C2
:1005F000089581E008950E94F40208950E94FB028C
:10060000089508950E9401030895A6E0B0E0EBE08C
:10061000F3E00C94B42B49835A839E833091F50107
:1006200089819A8131111AC03E81332399F02223A6
:1006300089F00E94E708182F682F89819A810E940B
:10064000C30869817A81812F0E94CA0F2696E3E050
:100650000C94D02B0E94D508182FF3CF0E94E708E6
:1006600069817A81F1CFFC01262F4081518162811D
:100670007381848195810E9405030895CF93DF9350
:10068000EC0161E00E943303BE010E94F602DF919B
:10069000CF910895CF93DF93EC0160E00E94330384
:1006A000BE010E940203DF91CF91089508950E9438
:1006B00098070E9456032FEF84E39CE0215080406E
:1006C0009040E1F700C0000008950E9457030E9487
:1006D0005E2408950E9457030E946F2408950F938B
:1006E0001F93CF93DF938C0161E00E943303EC01F1
:1006F000B8010E94FE02811106C080E0DF91CF9117
:100700001F910F910895B801CE010E948C2088237B
:10071000A1F3B801CE010E945A1E882371F3B801DB
:10072000CE010E94FE1F882341F3B801CE010E9432
:10073000A41D882311F3F8018581882361F0C3305B
:10074000FCE7DF07E9F058F4C115ECE7DE07A9F094
:10075000C130DC47B9F0C8010E94F902CFCFCB35D8
:100760008CE7D807A9F0CC35ECE7DE0771F0CA3585
:10077000DC4789F70E941D0DEECF0E946503BDCFB7
:100780000E94250D0E946A03B8CF0E94130DE3CF8B
:100790000E94210DE0CF0E9474230E94F20308956D
:1007A0000E94F6030E9479230895089581E0089538
:1007B0000895CF93DF93D82F0E94D603C82F8823A4
:1007C00019F08D2F0E94D8038C2FDF91CF910895BF
:1007D0000895CF93C82F0E94D5038C2F0E94D90370
:1007E000CF91089580E00E94E90308950E94942229
:1007F0000E94E9030895CF930E949422C82F80910C
:10080000F0018C1779F0C093F0010E9403246093EB
:10081000F1017093F2018093F3019093F4018C2F16
:100820000E94E903CF910895ADE0B0E0EAE1F4E081
:100830000C94B52B488759876A877B878C879D875F
:1008400091110E944B0C1F8286E0FE013896DE015A
:10085000119601900D928A95E1F78D8181110DC05D
:1008600029813A814B815C816D817E818F810E94DB
:100870007E0B2D96E2E00C94D12BCE0101960E94C6
:100880003E038111EDCFF5CFFC012481213021F40D
:10089000808191810E9419090895CF93C82F8823E0
:1008A000C9F08238C9F40E94942281FD13C089E303
:1008B0000E94030C0E94840C2FEF87EE93E02150DE
:1008C00080409040E1F700C0000089E30E940B0CDB
:1008D0000E94840CCF9108958338A1F40E94942241
:1008E00080FDF8CF83E50E94030C0E94840C2FEF5B
:1008F00081EE94E0215080409040E1F700C000007C
:1009000083E5E4CF8438A1F40E94942282FDE2CFF3
:1009100087E40E94030C0E94840C2FEF81EE94E088
:10092000215080409040E1F700C0000087E4CECF26
:100930008CEF8C0F813AB8F48C2F0E94C71F811165
:10094000C9CF6C2F80910401909105010E940F2363
:10095000882329F08C2F0E940B0C0E94840C8C2F72
:100960000E94030CB5CF80E28C0F883048F4C7702A
:1009700081E001C0880FCA95EAF70E942E0CA8CF2B
:10098000EBE5EC0FE33040F4F0E0E758FE4F8081F8
:1009900090E00E94B3229ECFC85ACB3108F09ACF84
:1009A000EC2FF0E0EE0FFF1FED5BFE4F8081918199
:1009B0000E94D8228FCF882309F44DC0823879F461
:1009C0000E94942281FF47C089E30E94030C0E9489
:1009D000840C89E30E940B0C0E94840C08958338D8
:1009E00059F40E94942280FF36C083E50E94030CD4
:1009F0000E94840C83E5EECF843859F40E9494223F
:100A000082FF29C087E40E94030C0E94840C87E4C3
:100A1000E1CF9CEF980F913AE8F290E2980F98306E
:100A200050F4877091E001C0990F8A95EAF7892FF9
:100A30000E94340CD1CF9BE5980F933028F490E0BE
:100A400080E00E94B3220895885A8B3120F490E010
:100A500080E00E94D82208951F93CF93DF93182F30
:100A6000EB010E944D04209739F4812F0E94DB0492
:100A7000DF91CF911F9108958FE99FE00197F1F7E2
:100A800000C000002197EFCF70E060E0893311F4DF
:100A900060E570E00E942C050895882321F00E94F3
:100AA0002E0C0E94840C0895882321F00E94340C9F
:100AB0000E94840C0895B0E0A0E0E1E6F5E00C941B
:100AC000AE2B6C01D62FC72FFC0115810681029534
:100AD0000F700E94240CE82E8823E9F0E12E1123E8
:100AE000D1F08C2F807F803451F080E28D0F8830E0
:100AF000F8F0011104C08C2F807E8032C9F0809103
:100B0000220382FF15C082E00E94E70C0E94240CA1
:100B100091E0E82EE926BC2EB2949FE0B922FBE0DA
:100B2000FB15B8F1EB2DF0E0E65FF24D0C946E2B67
:100B3000E12CF1CF0C2F0F70C07F11F00295007FD8
:100B4000112399F0002359F080E28D0F883010F0C6
:100B5000D11107C0802F0E942E0C0E94840C8D2F73
:100B60005AC0802F0E943E0CF8CF8D2F0E94DB04CC
:100B7000002379F080E28D0F883010F0D11104C08D
:100B8000802F0E94340C03C0802F0E94440C0E94CE
:100B9000840CEB2DE850FF0B349720F40E94942234
:100BA0000E94E903EE2089F00E94200C80FD0DC018
:100BB000F60115820E941A0C0E942108C6010E94AB
:100BC00063070E941A0C0E943108CDB7DEB7E9E036
:100BD0000C94CA2B2C2F2F70F22EC07FC03219F02C
:100BE000F29480EFF822DD2341F0D130D1F11123CE
:100BF00009F444C00023F1F0B2CF8091220382FDBA
:100C000015C0112359F0FF2029F08F2D0E942E0CC2
:100C10000E94840C80E00E944D04BBCF80E00E94C3
:100C2000DB04FF2009F4B5CF8F2DABCF112369F082
:100C3000011104C08F2D0E944D05ABCF013009F08A
:100C4000A8CF8F2D0E94620CA4CF0111A2CF8F2DAF
:100C50000E9454058F2D0E946E0C8F2D0E94520C05
:100C600098CF112321F0063008F093CFE3CF053061
:100C700008F08FCF8F2D0E9454058BCF0023D1F326
:100C8000D93349F43FEF87EE93E0315080409040F4
:100C9000E1F700C000008D2F0E94DB047ACF8C2F7B
:100CA00086958695837069F0813009F072CF8D2F1B
:100CB0009C2F9370111102C080E090E00E94D82216
:100CC00068CF8D2F9C2F9370111102C080E090E0AF
:100CD0000E94B3225ECF8C2F8370A1F5111159CFE2
:100CE0004D2F429546954770440F440F2D2F2F707E
:100CF00030E0042E02C0220F331F0A94E2F790E086
:100D000080E0D4FF09C08FE090E002C0880F991FF7
:100D10004A95E2F780959095C695C695C370822B4B
:100D2000932BC23049F058F4C13019F00E94F107FA
:100D300030CF0E94E8072DCF0E94FA072ACF0E94E9
:100D4000E50727CF8695112311F08C2F817088231A
:100D500009F41FCF4D2F429546954770440F440F1D
:100D60002D2F2F7030E0042E02C0220F331F0A9463
:100D7000E2F790E080E0D4FF09C08FE090E002C08D
:100D8000880F991F4A95E2F780959095C695C6956C
:100D9000C370822B932BC23049F058F4C13019F044
:100DA0000E945C08F6CE0E945308F3CE0E946508AC
:100DB000F0CE0E940908EDCECF70112329F08C2FC0
:100DC0000E9421088D2F37CF8D2F0E9454058C2F24
:100DD0000E943108DECED23F41F160F4D03FB9F03D
:100DE000D13F81F0112309F446C00111B8CE8C2FF8
:100DF0008F711FC0D33F01F1D43FA1F7809122032F
:100E000082FD24C08C2F8F71112311F312C0112386
:100E100041F0053008F0BDCE8C2F8F710E94430841
:100E2000B8CE063008F0B5CEF7CF8C2F8F711111E8
:100E3000CFCF0E942108ADCE112329F08C2F8F71C6
:100E40000E941508A6CE0E941008A3CE112349F0D7
:100E5000CF718C2F0E94210863E08C2F0E94C90C57
:100E600098CE81E00E94E70C023008F492CE82E036
:100E70000E94E70C8ECE002359F0D93309F00BCF36
:100E8000EFEFF7EE23E0E150F0402040E1F701CF33
:100E90008C2F8F719DCF0F931F93CF93DF93EC0116
:100EA000688179818D810E9424098C010E946E08DD
:100EB0000E94E407B801CE010E945B05DF91CF914B
:100EC0001F910F910895CF93DF93EC018C818823BC
:100ED00099F0CE010E946F03811111C00E94240C71
:100EE000882351F08D81882339F08091220382FF7D
:100EF00003C082E00E94E70CDF91CF910895CE01FC
:100F00000E944B07CE010E944A03F6CF90E080E09A
:100F10000E94B32290E080E00E94D8220E944B0CF5
:100F20000E94840C08950E94130C0E948607089565
:100F30000E943B0C0E949307089592959F709630F3
:100F400091F058F4925F9F70923058F4803F19F0FE
:100F500030F4883E30F481E008959A5FF4CF843F06
:100F6000D1F380E00895883EB0F3813FD1F7F3CF0D
:100F7000FC012481222339F0808191810E9419098A
:100F80000E949D07089580E00895A6E0B0E0EBEC94
:100F9000F7E00C94B52B2696E2E00C94D12BA7E059
:100FA000B0E0E5EDF7E00C94B52B2796E2E00C9469
:100FB000D12B08950E94D90708950E94DA079093D3
:100FC000150280931402089508950E94DD07089584
:100FD0002091140230911502822B932B0E94DD0781
:100FE00008952091140230911502822393230E94C8
:100FF000DD0708952091140230911502822793276E
:101000000E94DD0708950E94D90708950E940308F1
:1010100008950E9406089093130280931202089587
:1010200090E080E00E940908089521E030E0A901E5
:1010300002C0440F551F8A95E2F7CA010E940908B1
:10104000089521E030E002C0220F331F8A95E2F7B5
:101050008091120290911302822B932B0E94090817
:10106000089521E030E002C0220F331F8A95E2F795
:101070002095309580911202909113028223932340
:101080000E940908089521E030E002C0220F331FBA
:101090008A95E2F78091120290911302822793279A
:1010A0000E94090808952091120230911302822BA8
:1010B000932B0E9409080895209112023091130287
:1010C000822393230E9409080895209112023091EF
:1010D0001302822793270E94090808950895262F56
:1010E000277091E001C0990F2A95EAF723E07695E1
:1010F00067952A95E1F7660F771F660F771FFA014C
:10110000E60FF71F50E040E0682F70E08191DF01AB
:1011100011979B01042E02C0369527950A94E2F799
:10112000217021952827292328272C934F5F5F4F73
:101130004430510559F70895A82FA77023E09695DC
:1011400087952A95E1F7880F991F880F991FFB0152
:10115000E80FF91F50E040E080E0219130E00A2ED6
:1011600002C0369527950A94E2F721703327042EA2
:1011700001C0220F0A94EAF7822B4F5F5F4F443081
:10118000510559F70895262F983070F4873060F490
:10119000682F70E087E0989F600D711D112446EF65
:1011A00051E0822F0E946F080895292F983068F42B
:1011B000873058F490E066EF71E037E0239F800DB0
:1011C000911D11240E949C08089580E00895B0E0CC
:1011D000A0E0EDEEF8E00C94AE2B7C010091120241
:1011E000109113028091140290911502082B192B73
:1011F000CFE0D0E0CC24C394D12CBC2EC6010C2E61
:1012000002C0880F991F0A94E2F780239123892B4B
:1012100049F4219790F7B12C8B2DCDB7DEB7E9E0DB
:101220000C94CA2BB7018C2F0E94D60F019789F31B
:10123000F3CFCF93DF93EC010E94E708BE010E9439
:10124000D60FDF91CF9108951F93CF93DF93EB01DA
:101250009091F501992339F0CB010E941909DF9192
:10126000CF911F910895882369F0CB010E94E70870
:10127000182F682FCE010E94C308BE01812F0E9443
:10128000D60FEDCFCB010E94D508182FF6CF1F93B4
:10129000CF93DF93C091160217E0809117028C1351
:1012A00004C0DF91CF911F910895D0E01C9FF00101
:1012B0001D9FF00D1124E85EFD4F20813181428198
:1012C00053816481758186810E94CF072196C77002
:1012D000E4CF20915002309151024091520250913E
:1012E00053026091540270915502809156020E94FF
:1012F000CF070895CF93DF9380915602807F09F046
:101300004DC080915502882309F448C0E09116022F
:1013100050911702C0915102D09150026091520237
:101320007091530247E05E17C9F18E2F90E0E49F61
:10133000F0011124E85EFD4F2481222391F1489FA2
:10134000F001499FF00D1124DF01A85EBD4F1196F9
:101350002C9111972C1325C02C912D1322C015967A
:101360002C91159721111DC012962D913C91261B91
:10137000370B283C3105A8F4809156028F708061AC
:1013800080935602E25EFD4F80818F708061808382
:1013900080E592E00E9463070E944709DF91CF91A8
:1013A0000895FC013196E770BECF482F20911602B8
:1013B0009091170257E0291302C080E0089530E0B1
:1013C000529FF001539FF00D1124E85EFD4F818183
:1013D000681306C08081481303C085818111EECF58
:1013E0002F5F3F4F2770E7CFA4E1B0E0EAEFF9E0CD
:1013F0000C94AB2B8C0186E0F801DE011F96019066
:101400000D928A95E1F7F8018481E58090E5A92E97
:1014100092E0B92E9091540291111FC08823D1F00F
:10142000EE20A9F0C8010E94B807F82E882379F0B1
:1014300087E0F801D50101900D928A95E1F7C50189
:101440000E9444040E947A090E9469095FC0C80191
:101450000E946307FF24F39459C0C080D18082802A
:101460009380F09055022091520230915302A401D2
:10147000421B530BFF2009F4F9C0483C510508F00A
:10148000A7C0882309F442C090915102809156026E
:10149000282F207F09F05CC09D1116C0909150024A
:1014A000C91212C0E1104EC08F7080618093560245
:1014B0000E94690980E592E00E94630780915602CC
:1014C000F8018683F12C22C0E1103CC06D2D8C2DDB
:1014D0000E94D5096D2D8C2D0E94D509E82E811111
:1014E000F1CFCF86D88A8F8598890E941909292F34
:1014F00022952F70243078F49F702230A8F0992321
:10150000B9F0F8019681907F99F4FE2C8F2D6496A6
:10151000ECE00C94C72B2A5F2F70223068F0C801D2
:101520000E946307EF2CF1CF992311F0882369F310
:10153000805E883050F3F3CF803F38F3815F833093
:1015400070F7E3CF80915602816080935602BACF44
:101550009D1113C090915002C9120FC0E1100DC02F
:101560008683C8010E94630787E0F801A0E5B2E026
:1015700001900D928A95E1F767CFC8010E94B807E4
:10158000882309F464CFEE2009F461CF80915602DC
:10159000803288F02091500230915102398728879B
:1015A0009B868A86909154029C871D868E87CE01E9
:1015B00008960E94630787E0F801A0E5B2E0019079
:1015C0000D928A95E1F70E947A090E94690942CF3B
:1015D00090915602292F207FA1F4682D9A8A898A3A
:1015E000A6017A899E2D0E94C50780E592E00E949F
:1015F000630787E0F50111928A95E9F70E9469096E
:1016000061CF882309F482CF809151028D1110C0DF
:1016100080915002C8120CC0E1100AC09683C80124
:101620000E94630787E0F50111928A95E9F76ECF72
:10163000C8010E94B807882309F409CFEE2009F4F5
:1016400006CF80915602803208F4B5CF2091500227
:10165000309151023A8329839C828B82909154026B
:101660009D831E828F83CE010196A3CF483C5105F6
:10167000B8F5882309F4EECEFE2CEE2009F4E7CE6F
:10168000809151028D111EC080915002C8121AC063
:101690008091560280FD0DC0982F907F51F0868377
:1016A000903F09F45ECF982F907F905F8F70892BC9
:1016B00057CF87E0F801A0E5B2E001900D928A953E
:1016C000E1F724CFC8010E94B807811174CF80913F
:1016D0005602816080935602C8010E94630716CFAC
:1016E000682D9A8A898AA6017A899E2D0E94C5074B
:1016F00087E0F50111928A95E9F7A6CEAEE0B0E059
:10170000E4E8FBE00C94B42B288739874A875B8791
:101710006C877D878E87CE0108960E94F409882306
:10172000B1F06C85662341F0288539854A855B8553
:101730007D858E850E94CF0717E0809116029091DB
:10174000170289133DC02E96E3E00C94D02B87E05E
:10175000FE013896DE01119601900D928A95E1F70F
:101760008C85882349F32091170230E0C901019646
:1017700087709927409116024817190699F097E04B
:10178000929FD001939FB00D1124A85EBD4FFE0122
:10179000319601900D929A95E1F7809317020E947D
:1017A0004709CACF0E94980710921702109216029A
:1017B00087E0E0E5F2E0DF011D928A95E9F7BCCF12
:1017C000819FC0011124885E9D4F0E94F4098823E7
:1017D00009F4B9CFE09116021E9FF0011124E85ED2
:1017E000FD4F2081318142815381648175818681E1
:1017F0000E94CF078091160290E00196877099278A
:10180000809316029ACF682F809104019091050170
:101810000E9445230895682F80910401909105014D
:101820000E944823089580910401909105010E942F
:101830004B23089580915F0286958695869508953D
:1018400080915F028770089590915F02977081E0A8
:1018500009F480E0089580916B02089590916B02E5
:10186000892B80936B020895809590916B02982349
:1018700090936B02089510926B02089590916A0202
:10188000892B80936A020895809590916A0298232B
:1018900090936A02089510926A02089508950E9432
:1018A0004E0C089590916002292F282331F08095E5
:1018B0008923809360020E944F0C089508950E942E
:1018C0005E0C089590916102292F2823281729F092
:1018D000982B909361020E945F0C08959091610291
:1018E000292F282331F080958923809361020E945B
:1018F0005F0C089580916102882329F010926102A3
:1019000080E00E945F0C0895CF93DF93E091040183
:10191000F091050180916B028083E0910401F091C8
:101920000501808190916A02892B808390916102E8
:10193000992381F0E0910401F09105018081892BC8
:10194000808380910401909105010E94FD22811104
:101950000E947A0CC0910401D091050148E050E04A
:1019600067E572E0CE010E947B2C892B59F088E05C
:10197000FE01A7E5B2E001900D928A95E1F7CE0154
:101980000E94A822DF91CF91089508950E94C50C6E
:1019900008959091220392FF11C098E0899F9001D1
:1019A0001124622B60935F020E94210880915F02E4
:1019B0008695869586950E94C60C08950E942108FA
:1019C000089510925F0280E00E94C60C08959091E5
:1019D0005F028095892380935F02282F277069F426
:1019E000891759F09091220392FF07C0869586953A
:1019F00086950E9431080E94E10C0895909122037F
:101A000092FB222720F9281769F080FB92F9909326
:101A1000220380912103909122030E94460D82E0CF
:101A20000E94E70C08958091220382FB882780F9A9
:101A300091E089270E94FE0C089581E00E94FE0C2F
:101A4000089580E00E94FE0C08956FEF7FEF90E014
:101A500080E00E94D32C089590E080E00E949F2CAB
:101A600021E0863E9E4F09F020E0822F089582E01B
:101A700090E00E94912C089583E090E00E94912CC8
:101A8000089584E090E00E949F2C0895BC0184E0BA
:101A900090E00E94D32C0895AB01BC018FE090E050
:101AA0000E94C72C0895AB01BC0183E190E00E9425
:101AB000C72C089560E070E0CB010E94530D08959B
:101AC00060E070E0CB010E944C0D0E945A0D089519
:101AD000A8E0B0E0EEE6FDE00C94B52B66EE7EEFFC
:101AE00090E080E00E94D32C60E082E090E00E94D1
:101AF000B52C60E083E090E00E94B52C10921502B6
:101B00001092140260E074E184E090E00E94D32C13
:101B100060E086E090E00E94B52C6FEF87E090E0F7
:101B20000E94B52C40E050E0BA0188E090E00E94AD
:101B3000C72C60E084E290E00E94B52C60E087E171
:101B400090E00E94B52C60E08CE090E00E94B52C03
:101B500060E08DE090E00E94B52C19821A821B8211
:101B60001C821D821E821F82188648E050E068E1B8
:101B700070E0CE0101960E94A52C40E050E0BA0131
:101B800080E290E00E94C72C0E94600D2896E2E05F
:101B90000C94D12B0E94680D0895682F8EE090E080
:101BA0000E94B52C0895A6E0B0E0E9EDFDE00C94AC
:101BB000B32B0E94F7238C0180916C0290916D02EF
:101BC0008017910781F019821A820E94F723682FEB
:101BD00049815A81792F80E090E00E94140410938B
:101BE0006D0200936C022696E4E00C94CF2B0E94C9
:101BF000E61060937A0270937B0280937C0290934C
:101C00007D026093760270937702809378029093BE
:101C100079020895089508950E940B0E089508957D
:101C20000E940F0E089581E008958BE091E10E94DB
:101C30008A220E940A0E0E940C0E08950E94E2124F
:101C40000895089508950E94210E0E94220E08957D
:101C50000E940E110E94E80308950E94EE230E9444
:101C6000C0100E94FA120E943E120E94280E0E948A
:101C7000421E0E943F1C0E9416130E94100E0895DF
:101C8000A6E0B0E0E6E4FEE00C94AC2B0E94130E5C
:101C900081110CC00E94D30D0E94E2120E94BC1C54
:101CA0000E94FB032696EBE00C94C82B0E94611265
:101CB0008EE6A82E82E0B82E750110E0F7010191A2
:101CC0007F01812F0E9434111F5F183009F441C039
:101CD0000817A1F380917E0281FD0E943A110E94B3
:101CE0001E0EC82E10E099249394812F0E94341167
:101CF000082FF50181915F01081729F1F12CEE24DD
:101D0000E394D02ED8268D2D8E21A9F0CC2099F0E9
:101D1000F9821A830E94F7239C838B839D8291E032
:101D2000802F8E2109F490E049815A816B817C815A
:101D30008D810E941404F394EE0CF7E0FF12E3CFC0
:101D4000F501319700831F5F183079F60E94F70D77
:101D5000A3CF0813BFCF9ECF1F93CF93DF930E94D3
:101D6000DB0FEC01C11580E5D807F0F5C11580E463
:101D7000D80708F09CC0C03ED10520F5CD3CD10568
:101D800008F082C0C83AD10578F4C53AD10508F008
:101D900073C0C130D10519F1209709F1C430D105C4
:101DA000F0F4D0E0C0E01BC0C33CD105D0F7C85A66
:101DB000D0E0CC0FDD1FC458DE4F0990D881C02D74
:101DC000D4640DC0C11580E2D80708F0D1C0C11598
:101DD00081E0D80708F05AC0C83ED10510F7CE01FF
:101DE000DF91CF911F910895C03682E5D80718F58D
:101DF000C03482E5D80708F06BC0C03282E5D8074E
:101E000008F05FC0C11582E5D80708F497C02C2FF1
:101E10002695269580E2289F900111248C2F8370AF
:101E2000C1E0D0E002C0CC0FDD1F8A95E2F7C22BE3
:101E3000D32BDD68D4CFC03A82E5D80760F4C03830
:101E400082E5D80708F459C0CF71D0E0DC2FCC2749
:101E5000C46FD06AC4CFC03C82E5D80708F462C022
:101E6000C03E82E5D80708F09CCFDC2FCC27CC27DA
:101E7000DF71C06FD06AB3CFC55AD0E0CE54DE4F09
:101E8000C881D0E0D064ABCFD065A9CF8D2F0E94A0
:101E90007D10182FCE0199270E94DB0FC12FD0E0B3
:101EA000DC2FCC27CC27DF71C82BD92B98CFCE01C4
:101EB00099270E94DB0FCC27DF70C82BD92BD06A63
:101EC0008ECFCF71D0E0DC2FCC27C16FD06A87CF07
:101ED0002C2F26952695277080E2289F90011124AB
:101EE0008C2F8370C1E0D0E002C0CC0FDD1F8A953B
:101EF000E2F7C22BD32BDC6872CF2C2F26952695C8
:101F0000277080E2289F900111248C2F8370C1E0FC
:101F1000D0E002C0CC0FDD1F8A95E2F7C22BD32B95
:101F2000DA685DCF8C2F8F710E947D10C82FD0E0B2
:101F3000DC2FCC27CC27DF71D06251CF8C2F8F7153
:101F40000E947D1055E0D695C7955A95E1F7CF7060
:101F5000D0E0DC2FCC27282F30E084FF05C044E000
:101F6000220F331F4A95E1F7C22BD32BD06937CF0D
:101F70008D2F8F710E947D10182FCE0199270E94FE
:101F8000DB0FC12FD0E0DC2FCC27CC27DF71C82B93
:101F9000D92BD2CF462F783030F4673020F4672F1A
:101FA0000E94F102089590E080E008950E94CA0F17
:101FB0000E94AC0E089582389105B9F1B0F48133D6
:101FC000910509F47DC048F48932910509F46DC08A
:101FD0008A32910509F47BC008958533910509F48F
:101FE0005FC08933910509F10895833E9105D9F1C8
:101FF00038F4803E910529F1823E910579F10895EA
:10200000863E9105D9F1873E910509F43EC0843E94
:10201000910541F52091220321FF24C080912103E5
:1020200084FD19C087EE90E008952091210323706C
:1020300009F05AC02091220323FF14C089E290E0E6
:1020400008952091210320FD38C03091220330FFF4
:1020500009C024FF43C090E080E00895209121034F
:1020600022FDF7CF08952091210322FD3AC030913F
:10207000220330FD39C024FFF5CFEDCF209121039D
:1020800023FFF0CF24FDE7CFCDCF2091210323FD07
:102090002EC03091220331FFEECF84EE90E0089500
:1020A0002091210325FFDECFC9CF2091210325FDFB
:1020B00021C02091220323FFD5CF89E390E0D2CF26
:1020C0002091210326FFCECF8AE290E0089520914F
:1020D000210326FFC7CF81E390E0089583EE90E0CF
:1020E000089582EE90E0089580EE90E0089586EEE7
:1020F00090E0089585E390E008959091210392FF88
:1021000006C0282F28712830F9F4877F846093FF58
:1021100006C0282F28712831F1F4877E8461209130
:10212000220320FF06C0382F38713830D9F4877F5A
:10213000816021FF06C0282F28712831D1F4877EC5
:10214000816194FD877E0895282F24712430F9F64B
:102150008B7F8860DCCF282F2471243101F78B7EA0
:102160008861DDCF382F3171313019F78E7F88606B
:10217000E0CF282F2171213121F78E7E8861E1CFB8
:1021800010921D0310921E0310921F031092200341
:102190000895CF92DF92EF92FF926B017C010E9433
:1021A000E21281110EC00E940324C61AD70AE80A5F
:1021B000F90AC0921D03D0921E03E0921F03F09211
:1021C0002003FF90EF90DF90CF9008950F931F931F
:1021D0000E94E212882329F00E9403241F910F918C
:1021E00008950E94032400911D0310911E03209165
:1021F0001F0330912003600F711F821F931FEECFCA
:102200000E94E212882319F00E94F72308950E9489
:10221000E610CB01089580E0089508950E942C0DEA
:10222000811102C00E94CA0D0E94370D80937E0268
:102230000E94410D90932203809321030E940D116F
:102240000E943C0D90E00E94E5078091120290915F
:1022500013020E940608089508950E942C11089503
:1022600008950E9430110895E82FF0E0E45DFC4FDE
:1022700080810895089580EA8A95F1F7089500C055
:1022800008950E943B11089508950E9444110895F5
:10229000EF92FF921F93CF93DF9300D000D0CDB782
:1022A000DEB70E94E212182F60913403882309F4EC
:1022B00047C019821A821B821C82862F90E09E01E1
:1022C0002F5F3F4F7901B901845D9C4F0E94241319
:1022D0008823E9F08091230390E044E050E0B701C7
:1022E000845D9C4F0E947B2C21E020937F02892BF0
:1022F000C9F410E00E943111812F0F900F900F90C0
:102300000F90DF91CF911F91FF90EF9008958091F2
:102310007F02882371F384E0F70111928A95E9F72F
:1023200010927F02E0912303F0E0E45DFC4F89818D
:102330009A81AB81BC8180839183A283B383DACFFE
:1023400070E0645D7C4F8091230390E0845D9C4F3E
:102350000E94AB130E944511CFCFF894E82FE2956D
:10236000EF70F0E031A1282F2F7081E090E001C0E4
:10237000880F2A95EAF7982F9095932391A392A11D
:10238000892B82A378940895CF93DF9384EF0E94E2
:10239000AD1187E90E94AD1186EC0E94AD1184E376
:1023A0000E94AD11C5EBD1E089918F3F11F00E94E1
:1023B000AD1181E0CC3BD807B9F7DF91CF910895FB
:1023C000B0E0A0E0E6EEF1E10C94AF2BEC01D62EEC
:1023D000062F10E0C80184549E4F7C01FC018081CF
:1023E0008F3F09F444C0F894E82FE295EF70F0E0D5
:1023F00091A18F7021E030E001C0220F8A95EAF7A9
:10240000892F822B81A382A12095282322A378944F
:102410000E943F11E5EBF1E031E0C12C21912F3F0B
:1024200059F1A22FA295AF70B0E090968C9190E0F8
:102430002F7002C0959587952A95E2F780FD1CC004
:10244000832FC82A330F81E0EC3BF80739F7F701F7
:1024500080818F3F11F00E94AD1161E0C11001C079
:1024600060E08D2D0E944111C00FD11FC882CDB7F1
:10247000DEB7E8E00C94CB2B80E0E3CF809106013F
:102480008091060194E0811190E09093340384E000
:10249000891B809323030E94C41188E0ECE2F3E0DF
:1024A000DF01982F1D929A95E9F7E4E2F3E0DF014E
:1024B0001D928A95E9F784E00E949F120E942D11D7
:1024C0000895A8E0B0E0E7E6F2E10C94B22B8E01AB
:1024D0000F5F1F4F88E0F80111928A95E9F7F12C00
:1024E0006F2DC8010E94E011F394F4E0FF12F8CFC1
:1024F00048E050E0B80184E293E00E947B2C21E0A8
:10250000009709F420E0892B41F088E0F801A4E26B
:10251000B3E001900D928A95E1F76091340370E089
:10252000645D7C4F44E084E293E00E94A012182F87
:102530000E944811812B2896E5E00C94CE2B08953B
:10254000CF92DF92EF92FF920F931F93CF936C0184
:102550007B01042F222349F081E0809382020E94B4
:10256000F7239093810280938002C0918202C1116F
:102570000AC0C0E08C2FCF911F910F91FF90EF9078
:10258000DF90CF90089580918002909181020E9407
:102590000F24059770F310E0A801B601C7010E944F
:1025A0007B2C892B41F0A801B601C7010E94882C21
:1025B00010928202DFCFC0E0FBCF89B182FB882777
:1025C00080F9089580918502811107C00E94FD2A3B
:1025D000882351F081E08093850281E0909185020B
:1025E000913009F080E0089582E0809385020E9496
:1025F000F82AF3CF52985A988FE891E00197F1F7B3
:1026000000C000000E94DD12809306018091060147
:1026100067E0882349F080E00E94FC150E94E212E6
:1026200081110E945A13089587E0F6CF0E94E212AA
:10263000811102C00E945D13089581E0909186028D
:102640009A3008F080E008950F931F93CF93DF93A3
:10265000EC018B01809186028A30B8F4B801CE017A
:102660000E94A813C82F811122C0809186028F3F3B
:10267000B9F40E94F72390938402809383028C2FF5
:10268000DF91CF911F910F910895809183029091D6
:1026900084020E940F24843F914000F7C0E0EFCFF6
:1026A0008F5F809386028A3020F7C1E0E8CF1092D6
:1026B0008602E5CF0E94282108950E942B210895CB
:1026C000B0E0A0E0E6E6F3E10C94B02B7901C82F6E
:1026D000880FDD0B41155105A9F0FE0193E0EE0FC7
:1026E000FF1F9A95E1F7E95FFE4F8181928189573B
:1026F0009D4F208130E04217530708F49A01A90149
:102700000E94882CCE010E941422D82E8823D1F05A
:1027100001151105B9F083E0CC0FDD1F8A95E1F7B3
:10272000FE01E95FFE4F438150E00417150708F4EE
:10273000A801C95FDE4F6C817D8169577D4FC7015C
:102740000E94882C8D2DCDB7DEB7E7E00C94CC2B02
:102750000E94DD1408950E94FE140895A4E0B0E0E4
:10276000E4EBF3E10C94B32B6091A7027091A80203
:102770008091A9029091AA020E941E2411E0643661
:1027800071058105910518F10E94E6106E5F7F4F7B
:102790008F4F9F4F69837A838B839C8310E000E087
:1027A00030E020E044E050E0BE016F5F7F4F82E008
:1027B0000E946013182F882351F00E940324609315
:1027C000A7027093A8028093A9029093AA02812F76
:1027D0002496E4E00C94CF2BB0E0A0E0E2EFF3E12C
:1027E0000C94AD2B7C015B016A010E941D1301E07A
:1027F00010E0882311F00AE010E0C1E0D0E0B5015C
:10280000C701F6010995811104C021960C171D0717
:102810002CF4CDB7DEB7EAE00C94C92BCC9F900125
:10282000CD9F300D300D112490E080E045E34A95B6
:10283000F1F70000019682179307C1F7E0CFABE0F4
:10284000B0E0E5E2F4E10C94B32BCE0101960E94D6
:10285000621B1B856091AB027091AC028091AD024E
:102860009091AE020E941E24643671058105910587
:1028700010F41123C1F010E000E030E020E04BE064
:1028800050E0BE016F5F7F4F83E00E94601388239A
:1028900069F00E9403246093AB027093AC028093B2
:1028A000AD029093AE020E945F1B81E02B96E4E0A4
:1028B0000C94CF2BA5E0B0E0E0E6F4E10C94AD2B56
:1028C0005B01E090C001F090C10101E010E09E01C9
:1028D0002B5F3F4F50E040E070E060E080E00E94FE
:1028E0006013182F882309F44BC067018FEFC81AB3
:1028F000D80A6091A3027091A4028091A5029091E0
:10290000A6020E941E24643671058105910580F19E
:1029100004E010E09E012F5F3F4F50E040E070E088
:1029200060E081E00E946013F82E64E070E0C60170
:102930000E94431E11E09D81981310E01F2159F160
:102940000E9403246093A3027093A4028093A502C3
:102950009093A60289819A81AB81BC8180939F026A
:102960009093A002A093A102B093A20211E013C021
:1029700064E070E0C6010E94431E9D818913C8CFA8
:10298000F70181819281A381B48189839A83AB838A
:10299000BC831111DFCF80919F029091A002A09182
:1029A000A102B091A202F50180839183A283B38337
:1029B000812F2596EAE00C94C92B0F931F93CF9398
:1029C000DF93EC018B014AE554E10E94EC13811185
:1029D00006C080E0DF91CF911F910F9108954EEADC
:1029E00053E1B801CE010E94EC13882391F34FE12B
:1029F00054E1B801CE010E94EC13ECCFABE0B0E0A3
:102A0000E4E0F5E10C94AF2B0091C0011091C101FD
:102A1000C801019624E0FB01DC0101900D922A958A
:102A2000E1F764E070E00E94431EF8018083658155
:102A3000768187819085C0909B02D0909C02E09027
:102A40009D02F0909E026C157D058E059F0551F04C
:102A500060939B0270939C0280939D0290939E02D0
:102A60000E94C9108BE0F8013996DE0111960190A1
:102A70000D928A95E1F7F801138A8B85882329F056
:102A800060E0CE0101960E94871C2B96E8E00C9432
:102A9000CB2B0E94CE250E942D0E0E94DB2508958F
:102AA0000E94E0250E94400E0E94FA2508950E948F
:102AB00090230E94B4250E94150E0E9449150E9481
:102AC00050150E94230EFBCFEF92FF920F931F939E
:102AD000CF93DF93EB01E82FD1110EC0442321F0F7
:102AE000F0E0EA57FC4FE4916E2F7E2F8E2FCDB78A
:102AF000DEB7E6E00C94CD2B0D2F10E0282F30E050
:102B0000442329F02A573C4FF901249130E0F6E0A4
:102B1000CF9FC0011124EFEFF0E0BF010E94242BF2
:102B2000AB018C2F90E0880F991FA5E5A49FB00101
:102B3000A59F700D1124861B970B982F990F980F46
:102B4000BF01601B710B629FD001639FB00D729F2C
:102B5000B00D11248B2F9D9FB0011124672F772773
:102B6000EF01C61BD70BBE01629FE001639FD00D32
:102B7000729FD00D11247F01E91AF108E09EB00187
:102B8000E19E700DF09E700D1124672F7727E61BD4
:102B9000F70BE29F8001E39F100DF29F100D1124AF
:102BA000E12F722F4230510599F048F4411551053B
:102BB00069F04130510581F0EB2F8D2F07C0443073
:102BC000510569F080F046305105B1F76E2F8FCF77
:102BD000E22F7B2F812FFACFE22F7D2FF7CFEB2F24
:102BE000822F712FF3CF7B2F822FED2FEFCF41E07C
:102BF0000E94641508950895EAE2F1E080836183FC
:102C000008950E94F7150895CF93DF93762FE90179
:102C1000682F842F0E940116798368838A83DF914D
:102C2000CF91089580913503982F9E7F29F481706C
:102C300082608093350308958635E8F3817084655A
:102C4000F8CFB0E0A0E0E7E2F6E10C94AF2B88E02B
:102C500090E00E94992C6B017C0184E290E00E943C
:102C6000912C282F30E040E050E060E070E080E000
:102C700090E000E20E94DC2BB22FA32FF42FE52F6F
:102C8000D62FC72F97018601BC29A12BFE295E2FC5
:102C9000532B2B2F3A2F4F2F6D2F7C2FCDB7DEB715
:102CA000E8E00C94CB2BB0E0A0E0E9E5F6E10C9471
:102CB000AB2B49015A016B017C010E941216840161
:102CC000A4016A2D7B2D88E090E00E94C72C94011E
:102CD0004A2D5B2DB601C70100E20E94F72B622F3F
:102CE00084E290E00E94B52CCDB7DEB7ECE00C9406
:102CF000C72BE5E3F3E083E0808311828FEF8283CB
:102D000083831482A2E0B3E012968C9112978360C1
:102D100012968C93758123E030E04FEF5FEF60E017
:102D2000868197810E94531608958091350380FF14
:102D300002C08695089580E00895909139039330FC
:102D400018F49F5F90933903882391F02091350305
:102D50003091360340913703509138036091390325
:102D600070913A0380913B0390913C030E9453166B
:102D7000089581E00E949D1608959091390399234A
:102D800019F0915090933903882391F020913503E5
:102D900030913603409137035091380360913903E5
:102DA00070913A0380913B0390913C030E9453162B
:102DB000089581E00E94BD16089570E00E94161EDD
:102DC000089560912B018091350380FF0BC08091A5
:102DD0002A0123E0829FC0011124835C9C4F0E9442
:102DE000DD16089580912C0190912D0123E0829FA2
:102DF000F0011124E35CFC4F891748F7118210821F
:102E000012828F5F3396F8CF9091350390FF0EC0FA
:102E100090912C0120912D0133E0939FF00111241A
:102E2000E35CFC4F921718F00E94E116089581832D
:102E3000608342839F5F3396F5CFA3E0B0E0E3E287
:102E4000F7E10C94B52B9091350390FF0AC09E01D9
:102E50002F5F3F4F0E9404164B8169818A810E9437
:102E600004172396E2E00C94D12BCF93DF93EC016F
:102E7000EC81F0E0EF57FD4F4491E5E3F3E0628130
:102E800081810E941D178C818F5F8C83DF91CF9190
:102E90000895CF93DF93EC01E5E3F3E04381628192
:102EA0008C810E941D178C818F5F8C83DF91CF9165
:102EB0000895A3E0B0E0EFE5F7E10C94B32B8C01AB
:102EC0008091AF0281110AC09E012F5F3F4F4FEFEB
:102ED0006FEF0E9404168A818093AF02F80164812B
:102EE000613069F08091AF0240E0662361F040E01C
:102EF000623011F44091AF0280E060E004C0609164
:102F0000AF0240E080E00E940417F801848190E065
:102F1000019663E070E00E94382B84832396E4E0FE
:102F20000C94CF2BA3E0B0E0E8E9F7E10C94AE2BD2
:102F3000082FE62EF42EC22E9091350390FF40C04C
:102F400020913603281308C080913703861304C0EC
:102F500080913803841729F0809104038260809364
:102F60000403E92FE695AE2FB0E0AE53BE4F8C912F
:102F7000809302039E7F923039F59E012F5F3F4F71
:102F80004F2D6E2D802F0E9404164B8169818A81FE
:102F90000E94041700933603E0923703F09238033F
:102FA000CC2071F0209135036091390370913A0380
:102FB000302FA70180913B0390913C030E94531650
:102FC0002396E9E00C94CA2B823019F4F090380370
:102FD000E1CF8630A1F1893091F18931D9F6E951FB
:102FE0006E2F6170B62EE695F0E0EF57FC4F14910E
:102FF000D12C60912E01D61618F00E94E116CACF8E
:10300000D19EC001112470E00E94242B802FB110AA
:1030100014C0860F20912C01622F6D0D7727771F2A
:103020009B01220F331F260F371F235C3C4F4F2D70
:103030006E2D0E940416D394DCCF861BEBCF022F9B
:10304000A9CFE5E3F3E09181282F4381628188E0F5
:10305000890F0E949217089581E00E942118089517
:10306000E5E3F3E09181282F4381628188EF890FA6
:103070000E949217089581E00E9430180895E5E3B8
:10308000F3E0628121E1620F08F46FEF282F4381A2
:1030900081810E949217089581E00E943F1808954F
:1030A000E5E3F3E0628121E1621B08F460E0282F90
:1030B000438181810E949217089581E00E945018F7
:1030C0000895E5E3F3E0438121E1420F08F44FEF77
:1030D000282F628181810E949217089581E00E94C9
:1030E00061180895E5E3F3E0438121E1421B08F410
:1030F00040E0282F628181810E949217089581E02B
:103100000E947218089520E00E9492170895EF928D
:10311000FF921F93CF93DF93EC0110E0EE24EA942B
:10312000F12C60912E01161770F00E94E1169A8121
:103130008C8190FF27C08F5F8C83DF91CF911F918F
:10314000FF90EF90089520912C01422F410F5527B9
:10315000551FCA019A01220F331F280F391F235C04
:103160003C4F70E0C7010E94382B962F8C81409114
:10317000380360913703199F800D11240E940416B3
:103180001F5FCFCF8150D8CFB0E0A0E0EAECF8E1EC
:103190000C94AB2BEC018A81BB24BA9480FD02C055
:1031A000BB24B3948C8181110AC081E0B81222C083
:1031B00080912E0181508093B10281E08C83A12CFB
:1031C0004EE0942E80912E01A816B8F00E94E116D0
:1031D0008091B10291E0B91259C0811152C0809121
:1031E0002E0181508093B1021C82CDB7DEB7ECE096
:1031F0000C94C72B1092B102E0CF00912C01CA2C85
:10320000D12C0C0D1D2D111DC801880F991F080F01
:10321000191F035C1C4FF80111821082128234E0E6
:10322000E32EF12C812C8091B102880D8F301CF19E
:10323000692D0E94162B892F082E000C990BC81699
:10324000D90691F4809138038E9DA0018F9D500D79
:1032500011245595479555954795980160913703E9
:10326000809136030E9404168B0CF1E0EF1AF108EE
:10327000D1F6A394A7CF87FFDFCF90912E01890FBE
:10328000DBCF81508093B102BC82AFCF90E001963A
:1032900060912E0170E00E94382B8093B1028C83E4
:1032A000A4CFEF92FF920F931F93CF93DF93EC0184
:1032B0008C81811109C081E08C831092B00292E070
:1032C000909329018093280180912C0190912D01E8
:1032D00023E0829FF0011124E35CFC4F891758F131
:1032E00010E003E060912E01161758F10E94E116DC
:1032F000809128012091B002280F2093B002909174
:103300002901980F90932901191654F4022E000CEC
:10331000330B40912E014150550B2417350734F0E3
:10332000819580932801813009F41C82CDB7DEB7E6
:10333000E6E00C94CD2B1182108212828F5F3396BF
:10334000CDCFE12EF12C70E0C7010E94382B2091E7
:103350002C01820F482F50E02091B002022E000C69
:10336000330BE216F306BCF020912901022E000C6B
:10337000330B2E153F057CF0809F90011124235CB8
:103380003C4F4091380360913703809136030E948F
:1033900004161F5FA7CFFA01EE0FFF1FE40FF51F02
:1033A000E35CFC4F118210821282F3CFB0E0A0E008
:1033B000ECEDF9E10C94AB2BEC014C81042F10E007
:1033C0009801D8010E947C2B9B01AC010E94922B9A
:1033D0004B015C01E0E2F0E0E01BF10BA5E5B0E0A1
:1033E000AC019B010E94922B6B017C019F01DF01CC
:1033F0000E94742B9B01AC010E949D2B9B01AC0190
:10340000280D391D4A1D5B1DC701B6010E944C2BBA
:10341000F22E822F90E039E23F1520F143E0249F05
:103420009001112435952795122F109500E085E520
:10343000E82EEF1880912E01081718F10E94E1166E
:103440009C8181E0992319F0903219F48FEF8093D9
:10345000270180912701890F8C83CDB7DEB7ECE07F
:103460000C94C72B25E530E0B901681B790B9B0153
:10347000220F331F260F371F37FFD4CF2F5F3F4F49
:10348000D1CF8E2D01FD8F2D20912C01622F600F49
:103490007727771F9B01220F331F260F371F235CCF
:1034A0003C4F412F609137030E9404160F5FC2CF3B
:1034B0000F931F93CF93DF93EC0110E000E0909106
:1034C0002E019017110609F06CF40E94E1168C8110
:1034D00090E00196817099278C83DF91CF911F91A5
:1034E0000F91089520912C01A801420F511D9A01BE
:1034F000220F331F240F351F235C3C4F4C816091FA
:1035000037038091360396959017110651F04CF0D1
:10351000442349F0409138030E9404160F5F1F4F67
:10352000CECF4423B9F340E0F7CFB0E0A0E0EBE921
:10353000FAE10C94A72BFC016280448081E0848333
:10354000E1E8F2E07490E0E0F3E0E491C091380348
:10355000C695C158D0E0CC0FDD1FCD2FDD27812CC3
:1035600075E0972EAA24AA94B12C55245A94E719F1
:10357000EE2EF12C80912E01881638F00E94E11673
:10358000CDB7DEB7E0E10C94C32BC82CD12C82E080
:10359000861568F09C9CF0019D9CF00D1124EB5465
:1035A000FD4F8091360380838091370381834110E2
:1035B00023C09C9CF0019D9CF00D1124EB54FD4F09
:1035C0001382128220912C01C601820F911D9C0151
:1035D000220F331F280F391F235C3C4F9C9CF001A6
:1035E0009D9CF00D1124EB54FD4F4281618180813F
:1035F0000E9404168394BECF9C9C80019D9C100D5C
:1036000011240B541D4FF80183818823F1F0815060
:103610008383859DC0011124648170E00E94242B66
:10362000FB01FF27EF57FD4F8491E82FE719E59D38
:10363000C0011124B7010E94242B80913803689F98
:10364000B0011124F8017283BDCF0E945E2CB50138
:103650000E94382B8C179D070CF0B4CFF2E0F615C2
:1036600098F40E945E2CB5010E94382BF8018083EB
:103670000E945E2C209137032695622F70E00E94F5
:10368000382B280FF80121839C9CF0019D9CF00DA4
:103690001124EB54FD4F128280913803893C58F07D
:1036A00088EC9C9CF0019D9CF00D1124EB54FD4F87
:1036B0008483838387CF8431A0F784E1F2CF109293
:1036C0000403089528E0E5E3F3E0DC0101900D92A6
:1036D0002A95E1F7209102033091030340910403FE
:1036E000FC012087318742870895E2E0F3E01182F0
:1036F0008281846082830895E5E3F3E080818E7F98
:1037000080830E94751BE2E0F3E082818160828306
:103710000E94E1160895E5E3F3E020812E7F2083E7
:1037200031814281538164817581868197810E94B4
:1037300053160E94751BE2E0F3E082818160828370
:103740000E94E116089560913503669570E04BE0A4
:1037500050E08FE291E00E946E2C892B19F481E0F9
:10376000809303030E9400119093FC028093FB025C
:10377000809104038460809304030895909135033D
:1037800090FF38C09170811136C0926090933503DC
:1037900080910403816080930403662391F020915B
:1037A00035033091360340913703509138036091CF
:1037B000390370913A0380913B0390913C030E943E
:1037C000531660913503669570E04BE050E08FE250
:1037D00091E00E946E2C892BA9F00E94751B81E05C
:1037E0008093FE0240913803609137038091360345
:1037F0000E94831808958B3210F09465C7CF880F0C
:10380000982BC4CF0E94A31BEACF682F9091350359
:10381000969581E0890F8B3208F081E00E94BE1BF3
:10382000089581E00E94051C0895682F909135034A
:1038300096958FEF890F09F48AE20E94BE1B0895C6
:1038400081E00E94151C089561E00E94BE1B08954E
:10385000E5E3F3E080818160808386950E94241CEB
:1038600008958091350380FF03C00E948B1B08954B
:103870000E94281C089560E00E94BE1B089580915C
:103880000103811143C00E942C0D811104C00E94CC
:10389000CA0D0E9479160E94211620933503309399
:1038A0003603409337035093380360933903709382
:1038B0003A0380933B0390933C038091040383601D
:1038C000809304032E7FA1F40E9479160E94211692
:1038D00020933503309336034093370350933803D6
:1038E0006093390370933A0380933B0390933C03B6
:1038F0000E9412160E94751B8091350380FF03C041
:1039000086950E943B1C81E08093010308951F93DC
:10391000CF93DF93EC01162F8A8580FF0CC088813E
:1039200080FF24C0809135038160809335038881B6
:1039300086950E94BE1B8A8581FF06C0212F4B8180
:103940006A8189810E9492178A8582FF05C08985D4
:10395000882379F00E94A31B8A8583FF03C081E03E
:103960008093FE02DF91CF911F9108950E947C1BEE
:10397000E2CF0E94751BF0CFEF92FF920F931F933F
:10398000CF93DF9380910303882309F463C0809170
:103990000203E0913503E695E81BE093FD028230D7
:1039A00009F05DC0F0E0E358FD4FE491CE2FD0E088
:1039B00005E317E18091FE02882361F01092FE0278
:1039C0000E9400119093FC028093FB02109200036E
:1039D0001092FF020E940011E091FB02F091FC02A4
:1039E0009C012E1B3F0B2F3F3F47A0F52091B402B7
:1039F0002223B1F01092B4022091B2023091B302AE
:103A0000821B930B8F3F9F4758F4205D3A483093B9
:103A1000B3022093B2028091040388608093040370
:103A2000E090FF02F0900003EC0FFD1FF093FC020A
:103A3000E093FB028BEF92E0F80109958091FF0281
:103A400090910003892B31F4E114F10419F081E025
:103A50008093B402CDB7DEB7E6E00C94CD2B863070
:103A600049F4F0E0E658FD4FE491CE2FD0E009E4B0
:103A700017E1A0CF893051F4E695F0E0E958FD4F09
:103A8000E491CE2FD0E007E818E194CF8F3051F4C5
:103A9000E695F0E0EC58FD4FE491CE2FD0E004EC39
:103AA00018E188CF853149F4F0E0EF58FD4FE491FB
:103AB000CE2FD0E001E519E17DCFC8E2D0E006EDE0
:103AC00019E1883109F476CF833239F4EFE6F2E078
:103AD000C591D49109E517E16DCFC4EFD1E008E5B8
:103AE0001AE1843209F466CFC0EDD7E00BEF15E19F
:103AF000853209F05FCF8E2F63E00E940A2BE92FF9
:103B0000F0E0E459FD4FE491CE2FD0E005E91AE151
:103B100051CFFA01811101C0FB0109950895CF939E
:103B2000DF93C82FD62F0E9495168C1748F00E945D
:103B300095168D1728F40E94111CDF91CF910895DE
:103B40008C2F0E94241CF9CF1F93CF93DF93EC019D
:103B5000FB011581111110C00E942B0C8272FE0115
:103B6000E052F847E531F10508F05EC0EA5EF24D3B
:103B70000C946E2B0E94311C812FDF91CF911F91ED
:103B8000089540E25CE161E17CE10E94891DF4CF8F
:103B900041E15CE160E27CE1F8CF4BE358E16CE2AB
:103BA00078E1F3CF4CE258E16BE378E1EECF4DE5FD
:103BB00058E16CE478E1E9CF4CE458E16DE578E157
:103BC000E4CF4FE758E16EE678E1DFCF4EE658E10B
:103BD0006FE778E1DACF49ED56E169EB76E1D5CFD1
:103BE00049EB56E169ED76E1D0CF81E00E94241CDB
:103BF000C3CF65E082E00E948F1DBECF68E086E003
:103C0000FACF6EE089E0F7CF64E18FE0F4CF67E1AF
:103C100085E1F1CF88E1EACF62E289E1ECCF83E28E
:103C2000E5CF6AE285E2E7CF11E0A6CF539A4BB128
:103C3000477F5BB15860EFB7F8949B01220F331FA9
:103C4000260F371F280F391F2817390741F4EFBFF8
:103C50008FE594E00197F1F700C000000895DC01C2
:103C60006D91CD0178E05BB9000000C067FF4BB9F2
:103C7000660F000000C000C000C04BB900C07A95BC
:103C800091F7E2CF0895FC01680F791F8FEF91E360
:103C9000E617F70709F408952191822728E030E01C
:103CA00087FF06C0880F892721503109C9F7F0CF57
:103CB000880FFACFCF93DF93EC01FB018581882336
:103CC00009F4D2C09E0130572332310508F0B2C04A
:103CD0000E94410D9093220380932103FE01E15045
:103CE000F047E232F10520F4E55DF24D0C946E2BC5
:103CF0008091210381608093210393C080912203EE
:103D00008860809322038DC0809121038260F3CF6D
:103D1000809121038460EFCF809121038860EBCFF5
:103D2000809122038160EDCF809122038260E9CFF0
:103D3000809121038061DFCF809121038062DBCFFE
:103D4000809121038064D7CF0E949807809121033E
:103D50008068D1CF809121038C60CDCF80912203E8
:103D60008360CFCF809121038E7FC5CF80912203C6
:103D7000877FC7CF809121038D7FBDCF80912103A5
:103D80008B7FB9CF80912103877FB5CF80912203AC
:103D90008E7FB7CF809122038D7FB3CF8091210397
:103DA0008F7EA9CF809121038F7DA5CF80912103A4
:103DB0008F7BA1CF0E949807809121038F779BCFA3
:103DC00080912103837F97CF809122038C7F99CFAD
:103DD0008091210382FB992790F921E0922790FBA3
:103DE00082F990FB83F987CF80912203982F9095D9
:103DF00091708E7F892B90FB81F983CF9091210365
:103E0000892F8F7B96FF806476CF0E9498079091D0
:103E10002103892F97FB87F980586DCF81E00E949D
:103E2000CD0D80912103909122030E94460D0E94A6
:103E3000980780E0DF91CF91089580E0F0CF9091D6
:103E40002103892F8F7E94FF806155CF90912103AC
:103E5000892F8E7F90FF81604ECF90912203892F12
:103E6000877F93FF88604DCF81E0E4CF8B3109F4E9
:103E700065C040F58B3071F078F4863009F447C0A6
:103E800020F4853059F180E00895873009F448C066
:103E90008830C9F781E00895803109F45DC068F485
:103EA0008E3089F790917E02892F8B7F92FF8460FC
:103EB00080937E0282FD4CC0EDCF863159F389316B
:103EC00049F3E1CF8A3201F160F48732B1F020F496
:103ED0008E31C8F28D514CC08932A9F60E9465031B
:103EE000D9CF833440F48A3308F041C0853329F0B8
:103EF000883381F2C8CF833431F681E090E00E94AC
:103F0000E5070E949807C6CF0E94CA0DC3CF8091D3
:103F10007E02807F80937E0281E080930503089576
:103F200090917E02892F8E7F90FF816080937E0228
:103F300080FDB0CF817F80937E02ACCF90917E02D6
:103F4000892F8D7F91FF826080937E0281FFA2CFB7
:103F500080917E028160EFCF90917E02892F877FD2
:103F600093FF886080937E0283FDF2CF93CF8953C5
:103F700021E030E0A90102C0440F551F8A95E2F705
:103F8000CA01BDCF80E008950E94C21F0895CF935B
:103F9000C82F80910503882331F0813099F0109269
:103FA000050380E00DC00E942B0C8232D1F78C2FCC
:103FB0000E94C21F811116C08C2F0E94361F817073
:103FC000CF9108950E942B0C823289F38C2F0E948E
:103FD000C41F811105C0C43171F038F4CB3079F7BA
:103FE00081E0EDCF81E090E0EACFC93221F0C83323
:103FF000B9F380E0E4CF10920503FBCFCF93DF93BA
:10400000EB0186319C4711F50E942B0C9D81992371
:1040100099F08A7A91E009F490E090930603811177
:1040200009C089E20E94030C0E94840C80E0DF91A9
:10403000CF91089585E3F6CF80910603811104C0E6
:1040400089E20E940B0CF0CF85E3FBCF81E0EFCF3C
:104050000F931F93CF93DF93C42FD22FFC01858141
:104060008823C9F0409309030E94F7239093080323
:104070008093070380E28C0F883040F4C77081E0A2
:1040800001C0880FCA95EAF70E944D05DF91CF91D4
:104090001F910F91089510910903141332C080915C
:1040A0000703909108030E940F24883C910548F56E
:1040B000C0E2CD0F1D17B9F080E2810F883040F4C7
:1040C000177081E001C0880F1A95EAF70E94540525
:1040D000C83048F481E09D2F977001C0880F9A95F1
:1040E000EAF70E944D05802F0E944405C83070F603
:1040F000D77081E001C0880FDA95EAF70E94540575
:10410000C5CF80E28C0F883008F6C77081E001C00F
:10411000880FCA95EAF7F2CF0F93DB0188519C47CD
:1041200087309105A0F5FC01E35BF24D0C946E2BFA
:1041300006E221EE41EE6AE17CE7CD010E942820F3
:1041400080E00F91089507E225EE45EE6BE17CE7F4
:10415000F4CF06E221EE40EE68E17CE7EECF07E225
:1041600025EE44EE69E17CE7E8CF06E221EE42EE7F
:104170006CE17CE7E2CF07E225EE46EE6DE17CE7FD
:10418000DCCF08E221E045EE6EE17CE7D6CF159664
:104190008C91882319F010920903D3CF81E0D1CFFD
:1041A0008EE1489B02C08150E1F7489BFECF089505
:1041B000589880E28A95F1F7589A0895FC013BE0FF
:1041C0003A95F1F798E020E080E031E040E14A954F
:1041D000F1F7880F489B02C08160232742E04A958F
:1041E000F1F7000040E14A95F1F7915079F790E13D
:1041F0009A95F1F799B132E03A95F1F7000040E174
:104200004A95F1F7917092272081920F908308953B
:10421000A1E0B0E0EEE0F1E20C94B12B19828C0148
:104220007C01E60EF11C0E151F0541F481E0998119
:10423000911180E02196E6E00C94CD2B0E94D020D5
:10424000CE0101960E94DE20F80181938F01EBCF11
:10425000509A589A08955098589AE89AE9E6F0E0EA
:1042600080818C7F808308956150770B91E001C03D
:10427000990F6A95EAF720E031E0911108C02223F6
:1042800091F0589A80E28A95F1F758980895492F4D
:10429000482339F0589A232740E24A95F1F796953A
:1042A000ECCF5898F9CF5898EDCFFF920F931F930A
:1042B000CF93DF93EC018C01060F111DC017D107BE
:1042C00029F4CDB7DEB7E5E00C94CE2BF9900E942F
:1042D000D82068E08F2D0E943421F0CF1F920F92DA
:1042E0000FB60F9211240F931F932F933F934F9369
:1042F0005F936F937F938F939F93AF93BF93EF934E
:10430000FF93CF93DF930F92CDB7DEB719820E9450
:10431000D020CE0101960E94DE20082F069506953A
:104320000695282F22952570902F9570290F922F92
:10433000937026952695920F982797708981982BD0
:1043400009F05CC0053008F059C080E18A95F1F7AA
:10435000589A509A82E08A95F1F700C0589888E000
:10436000089F80011124D801A95FBE4F1696ED91D8
:10437000FC9117973097A9F06091C0017091C1012D
:1043800014962D913C911597260F371F11968D91FC
:104390009C911297680F791F13964C9113978C91EB
:1043A0000995F801E95FFE4F6381662351F0209182
:1043B000C0013091C10184819581820F931F0E94B9
:1043C00055210E94D82080E18A95F1F7589850989D
:1043D000589A80E18A95F1F7F801E95FFE4F608114
:1043E000662351F02091C0013091C10181819281F9
:1043F000820F931F0E9408210E94D0200F90DF910E
:10440000CF91FF91EF91BF91AF919F918F917F914C
:104410006F915F914F913F912F911F910F910F904D
:104420000FBE0F901F9018950F931F93CF93DF939C
:10443000EC0105970CF04CC0F894509A589885E020
:104440008A95F1F700009C2F969595708C2F8570BA
:10445000980F892F83709695969523E0CC0FDD1FDA
:104460002A95E1F7980F8E01092B0E94D82000C0F1
:1044700068E0802F0E94342180E18A95F1F75098FE
:10448000589A489B1EC087E090E048991CC0FE01E6
:10449000E95FFE4F63816623F9F02091C0013091FE
:1044A000C10184819581820F931F0E94082181118F
:1044B00013C0509A589A7894DF91CF911F910F9121
:1044C000089500C0DECF019729F4509A589A789445
:1044D00080E0F2CF00C0D9CF0E94D02080E28A9540
:1044E000F1F75898509A80E18A95F1F7C95FDE4F4D
:1044F0006881662351F02091C0013091C10189810A
:104500009A81820F931F0E9455210E94D82078948F
:1045100081E0D2CF9093EF018093EE0108959093C4
:10452000100380930F0308950E94E212811103C0CB
:1045300080910A030895E0910F03F09110033097E2
:1045400029F00190F081E02D0995089580E008950B
:10455000E0910F03F0911003309721F00280F38176
:10456000E02D09950895A3E0B0E0E9EBF2E20C94A8
:10457000B52B20910D0330910E0328173907A1F0B8
:1045800090930E0380930D03E0910F03F0911003BD
:10459000309751F023E029839B838A830680F7813B
:1045A000E02DCE01019609952396E2E00C94D12BE3
:1045B000A3E0B0E0EEEDF2E20C94B52B20910B03FA
:1045C00030910C0328173907A1F090930C038093C6
:1045D0000B03E0910F03F0911003309751F024E0AA
:1045E00029839B838A830680F781E02DCE01019683
:1045F00009952396E2E00C94D12B9C012E5F3F4F4E
:10460000AC01485F5F4F80E02417350709F4089537
:10461000F90191919F019923B9F38F5FF5CF66233B
:1046200049F0FC01329608962191261729F0E817E7
:10463000F907D1F780E0089581E008959C01FC011D
:1046400032969FEF80E04191461751F09F3F19F459
:10465000411101C0982F8F5F8630A9F79F3F09F461
:104660000895290F311D97FD3A95F9016283089548
:10467000FC01329608962191261303C0DF011197A1
:104680001C92E817F907B9F708950E941E230895B0
:104690000E9438230895029626E0FC0111922A9583
:1046A000E9F7089508950E9452230895811106C0E4
:1046B00081E0809311030E945323089582E0F9CF93
:1046C00083E0809311030E94532308950E94562390
:1046D000089581E0809311030E94532308950E945E
:1046E00069230895089508950E94732308950895F5
:1046F00008950E9472230895CF930E9477230E9409
:1047000061120E947823C0E08C2F0E943411811125
:1047100005C0CF5FC830C1F7CF91089581E0FCCFCD
:1047200085B7806885BF85B7806885BF08951F926B
:104730001FB61F9211248F939F93AF93BF938091C5
:104740001203811113C08091670390916803A091B7
:104750006903B0916A034196A11DB11D809367035F
:1047600090936803A0936903B0936A03BF91AF91DC
:104770009F918F911F901FBE1F90189580916F037E
:10478000843031F10E94CB031092120388E190E053
:1047900020E40FB6F894A895809360000FBE209394
:1047A000600083B7817F846083BF83B7816083BFEC
:1047B0007894889583B78E7F83BF0FB6F894A895B9
:1047C00080916000886180936000109260000FBE4D
:1047D00008950E9498070E94D003089582E084BD46
:1047E00093E095BD9AEF97BD80936E0008952FB723
:1047F000F8948091670390916803A0916903B09148
:104800006A032FBF08952FB7F894609167037091E2
:1048100068038091690390916A032FBF08959C01FA
:104820004FB7F8948091670390916803A091690352
:10483000B0916A034FBF821B930B0895CF92DF9212
:10484000EF92FF922FB7F894C0906703D09068035F
:10485000E0906903F0906A032FBFA7019601261B21
:10486000370B480B590BCA01B901FF90EF90DF904D
:10487000CF90089578941F921FB61F9211248F93A2
:104880009F93AF93BF938091670390916803A0912A
:104890006903B0916A030196A11DB11D809367035E
:1048A00090936803A0936903B0936A03BF91AF919B
:1048B0009F918F911F901FBE1F90189587E797E7D4
:1048C000909301088093000888E19AE00FB6F8946D
:1048D000A895809360000FBE90936000FFCF88E1A1
:1048E0009AE00FB6F894A895809360000FBE90935D
:1048F0006000FFCF80911B03089508959B01BA01CA
:1049000090916F039430E9F48F708093E9009FEFEA
:104910008091E800915085FD06C085ED8A95F1F7FC
:1049200000009111F5CF8091E80085FF0AC050E0AA
:1049300040E0C9010E9471268091E8008E77809343
:10494000E800089543E050E0BC0182E00E947E242C
:104950000895CF93DF93EC0148E050E0BC0181E083
:104960000E947E2488E0FE01A3E1B3E001900D9255
:104970008A95E1F7DF91CF91089580916E038111BF
:1049800009C00E9401280E945E288091E200846094
:104990008093E200089510926E0308950E946923A7
:1049A000089560916B0381E0611101C080E00E9475
:1049B0006023089590916F0381E0943009F080E0C6
:1049C00060916B030E946623089542E061EC81E0F0
:1049D0000E947D2742E261EC82E00E947D27909157
:1049E0006F0381E0943009F080E060916B030E94D6
:1049F0005623089580917103833009F461C030F427
:104A00008130D1F1823009F49EC008958A3009F4D2
:104A10008AC08B3009F46FC0893009F050C0809192
:104A20007003813209F04BC080917403909175033B
:104A3000029708F044C08091E800877F8093E800E7
:104A40008091E80082FF37C09091F3008091F200DE
:104A5000029731F48091F100813011F0863021F419
:104A60008091F10080931B038091E8008B77809305
:104A7000E8000E94B12723C080917003813AF9F4C5
:104A80008091E800877F8093E80080917403909183
:104A90007503892B61F468E083E193E070E00E9484
:104AA000C0268091E8008B778093E800089560E04D
:104AB00090E080E0F3CF80916F038111C1CF089522
:104AC00080917003813AD9F78091740390917503B6
:104AD000892BA9F78091E800877F8093E800809177
:104AE000E80080FFFCCF809142018093F10080912B
:104AF000E8008E77BCCF80917003813201F78091FE
:104B0000740390917503892BD1F68091E800877F1B
:104B10008093E8000E94B127809172038093420144
:104B20000E949807089580917003813241F6809128
:104B3000E800877F8093E8000E94B127809173038B
:104B400080931C03089580917003813A09F0B7CFD8
:104B50008091E800877F8093E8008091E80080FFE3
:104B6000FCCF80911C03C1CF84B7877F84BF0FB671
:104B7000F894A895809160008861809360001092FD
:104B800060000FBE80E890E00FB6F894809361005B
:104B9000909361000FBE0E946F2308950E94012828
:104BA0000E945E28E2EEF0E0808184608083789449
:104BB0000E94DD2A08958AE391E00E948F220895E1
:104BC00080916F03853031F480916F03853019F047
:104BD0000E94E92308950E94BE2380916D038823DB
:104BE00099F30E947C23882379F30E945B260E941C
:104BF0009807EACF08959A01409176035091770380
:104C00000E9403260895492F55274330510519F175
:104C100068F44130510509F444C04230510509F4AB
:104C200045C090E080E050E040E025C041325105B1
:104C300049F142325105A9F780E490E04BE255E09A
:104C400061157105C1F082E390E049EF54E06130F5
:104C5000710589F0E6CF99278130910581F00097A1
:104C600029F00297F1F6E6E8F4E002C0E8EAF4E0A1
:104C7000849190E0AF01F901518340830895E8E900
:104C8000F4E0F6CF89E090E04EEB54E06115710559
:104C900091F389E090E047ED54E06130710559F3FC
:104CA000C0CF82E190E047EE54E0E5CF8BE390E0A7
:104CB0004CEA54E0E0CF80E189BD82E189BD09B4CE
:104CC00000FEFDCF8091D8008F7D8093D800809129
:104CD000E00082608093E0008091E00081FDFCCFE5
:104CE0000895AF92BF92CF92DF92FF920F931F93DE
:104CF000CF93DF936C01EB018A010E94D027F82E3D
:104D0000811123C00115110539F0F80180819181CD
:104D1000C81BD90BC80ED91EB12CA12C2097A9F005
:104D20008091E80085FD22C08091E8008E77809315
:104D3000E80001151105A1F0F80180819181A80E0C
:104D4000B91EB182A08285E0F82E8F2DDF91CF9120
:104D50001F910F91FF90DF90CF90BF90AF9008957B
:104D60000E94D0278823D1F2F82EEFCFF60181914F
:104D70006F018093F1002197FFEFAF1ABF0ACECFEA
:104D8000FC01809176039091770386179707A0F036
:104D90006115710529F49091E8009E779093E800E1
:104DA00090E06115710551F4911108C08091E800FF
:104DB00082FF34C080E00895BC01F2CF80916F0380
:104DC0008823C1F18530C1F18091E80083FD30C0B6
:104DD0008091E80082FDEACF8091E80080FFE1CF7A
:104DE0008091F3002091F200382F6115710519F0C0
:104DF0002830310558F091E02830310509F090E075
:104E00002091E8002E772093E800CBCF819180930A
:104E1000F100615071092F5F3F4FE7CF80916F0321
:104E2000882341F0853041F08091E80083FFBECFB8
:104E300081E0089582E0089583E00895FC01809167
:104E400076039091770386179707A0F06115710597
:104E500029F48091E8008E778093E80090E0611556
:104E6000710551F4911108C08091E80082FF35C0AE
:104E700080E00895BC01F2CF80916F038823C9F1CF
:104E80008530C9F18091E80083FD31C08091E80050
:104E900082FDEACF8091E80080FFE1CF8091F300AE
:104EA0002091F200382F6115710519F02830310575
:104EB00058F091E02830310509F090E08091E80049
:104EC0008E778093E800CBCF84918093F100319668
:104ED000615071092F5F3F4FE6CF80916F038823A8
:104EE00041F0853041F08091E80083FFBDCF81E043
:104EF000089582E0089583E00895982F973028F070
:104F00008F708093E90081E008959093E900242F49
:104F1000762F50E0981731F07091EC002091ED0061
:104F20005091F00021FD02C09F5FE8CF3091EB006F
:104F30003E7F3093EB003091ED003D7F3093ED00EC
:104F40003091EB0031603093EB007093EC002093D4
:104F5000ED005093F0002091EE0027FDE5CF80E0BA
:104F600008958091700387FF13C08091E80082FF4D
:104F700006C08091E8008B778093E80004C08091A0
:104F80006F038111F2CF089580916F038823D9F3C5
:104F90008091E80080FFF8CF8091E8008E77ECCF19
:104FA0002091E4003091E50095E6A9012091EC0004
:104FB000822F817020FF06C08091E80080FF06C02C
:104FC00080E008952091E80022FD1AC080916F03CF
:104FD000882389F0853089F08091EB0085FD0FC032
:104FE0002091E4003091E50042175307F9F2915007
:104FF000E1F684E0089582E0089583E0089581E079
:1050000008950E9470280E947828E0EEF0E08081E8
:1050100081608083E8EDF0E080818F77808319BC28
:10502000A7EDB0E08C918E7F8C9380818F7E808302
:1050300010926E0308950F931F93CF93DF930E94F6
:1050400070280E947828C8EDD0E088818F77888307
:1050500088818068888388818F7D888319BC1092BD
:105060006F0310926B0310926D0310926C0300EEAD
:1050700010E0F80180818B7F808388818160888344
:1050800042E060E080E00E947D27E1EEF0E0808178
:105090008E7F8083E2EEF0E080818160808380817A
:1050A00088608083F80180818E7F80838881806121
:1050B0008883DF91CF911F910F910895E8EDF0E083
:1050C00080818F7E8083E7EDF0E080818160808346
:1050D00084E082BF81E080936E030E941B280895C4
:1050E000E8EDF0E080818E7F80831092E2000895E9
:1050F0001092DA001092E10008951F920F920FB6FD
:105100000F9211242F933F934F935F936F937F934D
:105110008F939F93AF93BF93EF93FF938091E100A1
:1051200082FF0BC08091E20082FF07C08091E10006
:105130008B7F8093E1000E94DC2A8091DA0080FF5F
:1051400019C08091D80080FF15C08091DA008E7F51
:105150008093DA008091D90080FF96C080E189BDFC
:1051600082E189BD09B400FEFDCF81E080936F0329
:105170000E94BD248091E10080FF19C08091E2006F
:1051800080FF15C08091E2008E7F8093E2008091C5
:10519000E20080618093E2008091D8008062809379
:1051A000D80019BC85E080936F030E94D1248091C0
:1051B000E10084FF2BC08091E20084FF27C080E1E2
:1051C00089BD82E189BD89B5982F917080FFFBCFA1
:1051D0008091D8008F7D8093D8008091E1008F7EF0
:1051E0008093E1008091E2008F7E8093E2008091C5
:1051F000E20081608093E20080916B03882309F4D0
:1052000049C084E080936F030E94DA248091E1001A
:1052100083FF29C08091E20083FF25C08091E100D7
:10522000877F8093E10082E080936F0310926B038D
:105230008091E1008E7F8093E1008091E2008E7F7B
:105240008093E2008091E20080618093E20042E07E
:1052500060E080E00E947D278091F000886080936C
:10526000F0000E94CE24FF91EF91BF91AF919F91EA
:105270008F917F916F915F914F913F912F910F90FF
:105280000FBE0F901F90189519BC10926F030E94CB
:10529000CB2470CF8091E30087FD93E090936F0360
:1052A000B3CF1F920F920FB60F9211242F933F93FB
:1052B0004F935F936F937F938F939F93AF93BF931E
:1052C000CF93DF93EF93FF93D091E900DF7080914C
:1052D000EC00C82FC17080FDC0E81092E9008091F9
:1052E000F000877F8093F00078940E9495291092B7
:1052F000E9008091F00088608093F000CD2BCF70A2
:10530000C093E900FF91EF91DF91CF91BF91AF91F1
:105310009F918F917F916F915F914F913F912F91CD
:105320000F900FBE0F901F901895AAE2B0E0EBE926
:10533000F9E20C94B42B80E793E02091F100FC019A
:105340002193CF01F3E088379F07B9F70E94FA2431
:105350008091E80083FF1EC18091700390917103DA
:105360009A3008F017C1E92FF0E0EC5AF24D0C9496
:105370006E2B803899F0823809F00CC1809174034B
:105380008F70873008F006C18093E9008091EB00B0
:1053900085FB882780F91092E90006C080916C0394
:1053A00090916D03911182609091E800977F9093A6
:1053B000E8008093F1001092F1008091E8008E7770
:1053C000E5C0882309F4D3C0823009F0E3C080919E
:1053D00072038111D6C0809174038F702FEF280F54
:1053E000263008F0D7C08093E9002091EB0020FF21
:1053F000C8C0933031F48091EB0080628093EB0061
:10540000C0C09091EB0090619093EB0021E030E000
:1054100001C0220F8A95EAF72093EA001092EA0071
:105420008091EB008860EACF8111B4C010917203C3
:105430001F778091E3008078812B8093E300809137
:10544000E800877F8093E8000E94B1278091E80000
:1054500080FFFCCF8091E30080688093E30082E0CE
:10546000111183E080936F0395C08058823008F05B
:1054700091C080917203909173038C3D23E0920759
:10548000A1F583E08A838AE289834FB7F894DE012D
:10549000139620E03EE051E2E32FF0E050935700F6
:1054A000E49120FF03C0E295EF703F5FEF708E2F15
:1054B00090E0EA30C0F0C7968D939D932F5F243122
:1054C00059F74FBF8091E800877F8093E8006AE238
:1054D00070E0CE0101960E94C0268091E8008B7793
:1054E0008093E80057C0C096E7CF60917403709135
:1054F0007503AE014F5F5F4F0E94FB25BC01892BF6
:1055000009F448C09091E800977F9093E800898162
:105510009A810E941E27E1CF8038E1F58091E80052
:10552000877F8093E80080916B038093F10045CFE3
:10553000811130C090917203923060F58091E80043
:10554000877F8093E80090936B030E94B12780913E
:105550006B03882311F084E005C08091E30087FD90
:10556000FACF81E080936F030E94E52413C08091FD
:105570007203813079F481E0933009F080E0809308
:105580006D031092E9008091E800877F8093E80026
:105590000E94B1278091E80083FF0AC08091E80053
:1055A000877F8093E8008091EB0080628093EB001E
:1055B000AA96E3E00C94D02B0895CF9380916F03CB
:1055C0008823A1F0C091E900CF709091EC00892F61
:1055D000817090FD80E8C82B1092E9008091E8006E
:1055E00083FD0E949529CF70C093E900CF91089563
:1055F0000E94012810926F030895E8EDF0E0808189
:10560000806180838AE18A95F1F700C08091D9009A
:1056100081700895991B79E004C0991F961708F0CE
:10562000961B881F7A95C9F78095089587FB082EE9
:10563000062687FD819567FD61950E940A2B0EF471
:10564000919507FC81950895AA1BBB1B51E107C0EA
:10565000AA1FBB1FA617B70710F0A61BB70B881F02
:10566000991F5A95A9F780959095BC01CD01089591
:1056700097FB072E16F4009407D077FD09D00E94FF
:10568000242B07FC05D03EF4909581959F4F0895FB
:10569000709561957F4F0895A1E21A2EAA1BBB1B3E
:1056A000FD010DC0AA1FBB1FEE1FFF1FA217B307EE
:1056B000E407F50720F0A21BB30BE40BF50B661F04
:1056C000771F881F991F1A9469F7609570958095C8
:1056D00090959B01AC01BD01CF010895EE0FFF1F16
:1056E0000590F491E02D09940E947C2B332312F451
:1056F0008A1B9B0B0C948D2BA29FB001B39FC00102
:10570000A39F700D811D1124911DB29F700D811DED
:105710001124911D08950E947C2BB7FF0895821BD0
:10572000930B08950E947C2BA59F900DB49F900D24
:10573000A49F800D911D11240895B7FF0C94922B06
:105740000E94922B821B930B08952F923F924F92AF
:105750005F926F927F928F929F92AF92BF92CF9201
:10576000DF92EF92FF920F931F93CF93DF93CDB70A
:10577000DEB7CA1BDB0B0FB6F894DEBF0FBECDBF82
:1057800009942A88398848885F846E847D848C8453
:105790009B84AA84B984C884DF80EE80FD800C815C
:1057A0001B81AA81B981CE0FD11D0FB6F894DEBF3F
:1057B0000FBECDBFED010895002E083090F0982F58
:1057C000872F762F652F542F432F322F22270850F3
:1057D000F4CF220F331F441F551F661F771F881FEA
:1057E000991F0A95B2F7002D089597FD1094002E89
:1057F000083098F00850232F342F452F562F672F4D
:10580000782F892F912DF4CF1594979587957795BB
:10581000679557954795379527950A95AAF71124C7
:10582000002D08958F929F92AF92BF92CF92DF92F8
:10583000EF92FF92CF93DF93EC01688179818A81A7
:105840009B81611571058105910521F464E279ED73
:105850008BE597E02DE133EF41E050E00E94E92C29
:1058600049015A019B01AC01A7EAB1E40E94922BC5
:105870006B017C01ACEEB4EFA50194010E94A02B5A
:10588000DC01CB018C0D9D1DAE1DBF1DB7FF03C0FC
:105890000197A109B04888839983AA83BB839F7726
:1058A000DF91CF91FF90EF90DF90CF90BF90AF90BE
:1058B0009F908F9008950E94122C089580E091E0AF
:1058C0000E94122C0895B0E0A0E080930001909314
:1058D0000101A0930201B09303010895FC0141501E
:1058E000504030F001900616D1F73197CF0108955E
:1058F000882799270895FB01DC0104C08D91019050
:10590000801921F441505040C8F7881B990B089525
:10591000FB01DC0102C001900D9241505040D8F7CC
:105920000895F999FECF92BD81BDF89A992780B567
:105930000895A6E1B0E044E050E00C94DB2CA8E12F
:10594000B0E042E050E00C94DB2CDC01A40FB51F6A
:105950004150504048F0CB01840F951F2E910E947A
:10596000B62C41505040D0F70895262FF999FECF1C
:1059700092BD81BDF89A019700B4021639F01FBAA2
:1059800020BD0FB6F894FA9AF99A0FBE08950396BF
:10599000272F0E94B62C0E94B52C252F0E94B62CD2
:1059A000242F0C94B62C0196272F0E94B62C0C9411
:1059B000B52CDC01CB01FC01F999FECF06C0F2BD8C
:1059C000E1BDF89A319600B40D9241505040B8F7BD
:1059D0000895052E97FB1EF400940E94002D57FD9C
:1059E00007D00E944C2B07FC03D04EF40C94002DE2
:1059F00050954095309521953F4F4F4F5F4F0895FB
:105A000090958095709561957F4F8F4F9F4F08952A
:105A1000F894FFCF9A059A05EA05EA054F06C905ED
:105A2000C905C9056B06DC06EB06EB06BA1DC11DF0
:105A3000C81DCD1DD21DD71DDC1DE11DE61DEB1DB2
:105A4000F01DF51DF91DFE1D011E041E071E0A1E78
:105A50000C1E0F1E111EB21E261FBA1E841E881E8B
:105A6000BE1E8C1EC21ECE1E981E1F1F9C1ED21E46
:105A7000A01ED61EFE1EA41EDA1E051FAA1EE01EB4
:105A8000E81E901EC61E941ECA1EAE1EE41EF41E04
:105A90000E1F1D1F7E1EB61E2D1FA920AF20982091
:105AA000A320B520BB20C120B929E129CA2AE129B8
:0C5AB000CA2A142A352ACA2A8C2A982AED
:105ABC000100000062020100000001000000000073
:105ACC000000040100000004050000000000000BB1
